{
  "contractName": "LeaseOnTheBlock",
  "abi": [
    {
      "constant": true,
      "inputs": [],
      "name": "Daily_Animal_Restriction_Violation_Fee",
      "outputs": [
        {
          "internalType": "uint256",
          "name": "",
          "type": "uint256"
        }
      ],
      "payable": false,
      "stateMutability": "view",
      "type": "function"
    },
    {
      "constant": true,
      "inputs": [],
      "name": "Effective_Date",
      "outputs": [
        {
          "internalType": "uint256",
          "name": "",
          "type": "uint256"
        }
      ],
      "payable": false,
      "stateMutability": "view",
      "type": "function"
    },
    {
      "constant": true,
      "inputs": [],
      "name": "Landlord_Name",
      "outputs": [
        {
          "internalType": "string",
          "name": "",
          "type": "string"
        }
      ],
      "payable": false,
      "stateMutability": "view",
      "type": "function"
    },
    {
      "constant": true,
      "inputs": [],
      "name": "Landlord_Notice_Address",
      "outputs": [
        {
          "internalType": "string",
          "name": "",
          "type": "string"
        }
      ],
      "payable": false,
      "stateMutability": "view",
      "type": "function"
    },
    {
      "constant": true,
      "inputs": [],
      "name": "Lease_Commencement_Date",
      "outputs": [
        {
          "internalType": "uint256",
          "name": "",
          "type": "uint256"
        }
      ],
      "payable": false,
      "stateMutability": "view",
      "type": "function"
    },
    {
      "constant": true,
      "inputs": [],
      "name": "Lease_Termination_Date",
      "outputs": [
        {
          "internalType": "uint256",
          "name": "",
          "type": "uint256"
        }
      ],
      "payable": false,
      "stateMutability": "view",
      "type": "function"
    },
    {
      "constant": true,
      "inputs": [],
      "name": "Premises_Description",
      "outputs": [
        {
          "internalType": "string",
          "name": "",
          "type": "string"
        }
      ],
      "payable": false,
      "stateMutability": "view",
      "type": "function"
    },
    {
      "constant": true,
      "inputs": [],
      "name": "Property_Name",
      "outputs": [
        {
          "internalType": "string",
          "name": "",
          "type": "string"
        }
      ],
      "payable": false,
      "stateMutability": "view",
      "type": "function"
    },
    {
      "constant": true,
      "inputs": [],
      "name": "Rent_Due_Date",
      "outputs": [
        {
          "internalType": "string",
          "name": "",
          "type": "string"
        }
      ],
      "payable": false,
      "stateMutability": "view",
      "type": "function"
    },
    {
      "constant": true,
      "inputs": [],
      "name": "Rent_Increase_Date",
      "outputs": [
        {
          "internalType": "string",
          "name": "",
          "type": "string"
        }
      ],
      "payable": false,
      "stateMutability": "view",
      "type": "function"
    },
    {
      "constant": true,
      "inputs": [],
      "name": "Security_Deposit_Amount",
      "outputs": [
        {
          "internalType": "uint256",
          "name": "",
          "type": "uint256"
        }
      ],
      "payable": false,
      "stateMutability": "view",
      "type": "function"
    },
    {
      "constant": true,
      "inputs": [],
      "name": "Tenant_Name",
      "outputs": [
        {
          "internalType": "string",
          "name": "",
          "type": "string"
        }
      ],
      "payable": false,
      "stateMutability": "view",
      "type": "function"
    },
    {
      "constant": false,
      "inputs": [
        {
          "internalType": "string",
          "name": "lname",
          "type": "string"
        },
        {
          "internalType": "string",
          "name": "tname",
          "type": "string"
        },
        {
          "internalType": "string",
          "name": "pname",
          "type": "string"
        },
        {
          "internalType": "uint256",
          "name": "lcdate",
          "type": "uint256"
        },
        {
          "internalType": "uint256",
          "name": "ltdate",
          "type": "uint256"
        },
        {
          "internalType": "string",
          "name": "rdue",
          "type": "string"
        },
        {
          "internalType": "string",
          "name": "rinc",
          "type": "string"
        },
        {
          "internalType": "uint256",
          "name": "secdep",
          "type": "uint256"
        },
        {
          "internalType": "string",
          "name": "premdesc",
          "type": "string"
        },
        {
          "internalType": "uint256",
          "name": "anfee",
          "type": "uint256"
        },
        {
          "internalType": "string",
          "name": "ladd",
          "type": "string"
        },
        {
          "internalType": "uint256",
          "name": "effdate",
          "type": "uint256"
        }
      ],
      "name": "recordContract",
      "outputs": [],
      "payable": false,
      "stateMutability": "nonpayable",
      "type": "function"
    }
  ],
  "bytecode": "0x608060405234801561001057600080fd5b50610a06806100206000396000f3fe608060405234801561001057600080fd5b50600436106100df5760003560e01c8063958b7db31161008c578063c7b2441911610066578063c7b244191461059c578063d6df42bb146105a4578063e9c3805c146105ac578063eb20b30d146105b4576100df565b8063958b7db31461058457806396ec99171461058c578063ba4198e914610594576100df565b80634ca8f45f116100bd5780634ca8f45f146101835780635e89bd851461018b57806363ae5f5314610193576100df565b80632a29b5a1146100e45780633880b2fa14610161578063403f9ada1461017b575b600080fd5b6100ec6105bc565b6040805160208082528351818301528351919283929083019185019080838360005b8381101561012657818101518382015260200161010e565b50505050905090810190601f1680156101535780820380516001836020036101000a031916815260200191505b509250505060405180910390f35b61016961064a565b60408051918252519081900360200190f35b610169610650565b610169610656565b6100ec61065c565b61058260048036036101808110156101aa57600080fd5b8101906020810181356401000000008111156101c557600080fd5b8201836020820111156101d757600080fd5b803590602001918460018302840111640100000000831117156101f957600080fd5b91908080601f016020809104026020016040519081016040528093929190818152602001838380828437600092019190915250929594936020810193503591505064010000000081111561024c57600080fd5b82018360208201111561025e57600080fd5b8035906020019184600183028401116401000000008311171561028057600080fd5b91908080601f01602080910402602001604051908101604052809392919081815260200183838082843760009201919091525092959493602081019350359150506401000000008111156102d357600080fd5b8201836020820111156102e557600080fd5b8035906020019184600183028401116401000000008311171561030757600080fd5b91908080601f016020809104026020016040519081016040528093929190818152602001838380828437600092019190915250929584359560208601359591945092506060810191506040013564010000000081111561036657600080fd5b82018360208201111561037857600080fd5b8035906020019184600183028401116401000000008311171561039a57600080fd5b91908080601f01602080910402602001604051908101604052809392919081815260200183838082843760009201919091525092959493602081019350359150506401000000008111156103ed57600080fd5b8201836020820111156103ff57600080fd5b8035906020019184600183028401116401000000008311171561042157600080fd5b91908080601f0160208091040260200160405190810160405280939291908181526020018383808284376000920191909152509295843595909490935060408101925060200135905064010000000081111561047c57600080fd5b82018360208201111561048e57600080fd5b803590602001918460018302840111640100000000831117156104b057600080fd5b91908080601f0160208091040260200160405190810160405280939291908181526020018383808284376000920191909152509295843595909490935060408101925060200135905064010000000081111561050b57600080fd5b82018360208201111561051d57600080fd5b8035906020019184600183028401116401000000008311171561053f57600080fd5b91908080601f01602080910402602001604051908101604052809392919081815260200183838082843760009201919091525092955050913592506106b6915050565b005b610169610766565b6100ec61076c565b6101696107c7565b6100ec6107cd565b6100ec610828565b6100ec610880565b6100ec6108db565b6005805460408051602060026001851615610100026000190190941693909304601f810184900484028201840190925281815292918301828280156106425780601f1061061757610100808354040283529160200191610642565b820191906000526020600020905b81548152906001019060200180831161062557829003601f168201915b505050505081565b60035481565b60075481565b60045481565b60018054604080516020600284861615610100026000190190941693909304601f810184900484028201840190925281815292918301828280156106425780601f1061061757610100808354040283529160200191610642565b8b516106c99060009060208f0190610936565b508a516106dd9060019060208e0190610936565b5089516106f19060029060208d0190610936565b5060038990556004889055865161070f9060059060208a0190610936565b508551610723906006906020890190610936565b506007859055835161073c906008906020870190610936565b506009839055815161075590600a906020850190610936565b50600b555050505050505050505050565b600b5481565b6006805460408051602060026001851615610100026000190190941693909304601f810184900484028201840190925281815292918301828280156106425780601f1061061757610100808354040283529160200191610642565b60095481565b6000805460408051602060026001851615610100026000190190941693909304601f810184900484028201840190925281815292918301828280156106425780601f1061061757610100808354040283529160200191610642565b6002805460408051602060018416156101000260001901909316849004601f810184900484028201840190925281815292918301828280156106425780601f1061061757610100808354040283529160200191610642565b6008805460408051602060026001851615610100026000190190941693909304601f810184900484028201840190925281815292918301828280156106425780601f1061061757610100808354040283529160200191610642565b600a805460408051602060026001851615610100026000190190941693909304601f810184900484028201840190925281815292918301828280156106425780601f1061061757610100808354040283529160200191610642565b828054600181600116156101000203166002900490600052602060002090601f016020900481019282601f1061097757805160ff19168380011785556109a4565b828001600101855582156109a4579182015b828111156109a4578251825591602001919060010190610989565b506109b09291506109b4565b5090565b6109ce91905b808211156109b057600081556001016109ba565b9056fea265627a7a72315820b914718f07207ca98c8de8ea458a866344c36c732648929e52c3a68dd2a9244e64736f6c634300050c0032",
  "source": "pragma solidity ^0.5.0;\n\ncontract LeaseOnTheBlock {\n    string public Landlord_Name;\n    string public Tenant_Name;\n    string public Property_Name;\n    uint256 public Lease_Commencement_Date;\n    uint256 public Lease_Termination_Date;\n    string public Rent_Due_Date;\n    string public Rent_Increase_Date;\n    uint public Security_Deposit_Amount;\n    string public Premises_Description;\n    uint public Daily_Animal_Restriction_Violation_Fee;\n    string public Landlord_Notice_Address;\n    uint256 public Effective_Date;\n\n    function recordContract(string memory lname, string memory tname,\nstring memory pname, uint256 lcdate, uint256 ltdate,\nstring memory rdue, string memory rinc, uint secdep,\nstring memory premdesc, uint anfee,\nstring memory ladd, uint256 effdate\n    ) public {\n        Landlord_Name = lname;\n        Tenant_Name = tname;\n        Property_Name = pname;\n        Lease_Commencement_Date = lcdate;\n        Lease_Termination_Date = ltdate;\n        Rent_Due_Date = rdue;\n        Rent_Increase_Date = rinc;\n        Security_Deposit_Amount = secdep;\n        Premises_Description = premdesc;\n        Daily_Animal_Restriction_Violation_Fee = anfee;\n        Landlord_Notice_Address = ladd;\n        Effective_Date = effdate;\n    }\n}\n\n",
  "sourcePath": "/home/hnc/Desktop/gitcoin/sandbox/contracts/LeaseOnTheBlock.sol",
  "compiler": {
    "name": "solc",
    "version": "0.5.12+commit.7709ece9.Emscripten.clang"
  },
  "schemaVersion": "3.0.20",
  "updatedAt": "2020-03-27T11:05:15.198Z",
  "networkType": "ethereum",
  "devdoc": {
    "methods": {}
  },
  "userdoc": {
    "methods": {}
  }
}