{
  "contractName": "BillOfSale",
  "abi": [
    {
      "payable": true,
      "stateMutability": "payable",
      "type": "fallback"
    },
    {
      "constant": true,
      "inputs": [],
      "name": "buyer",
      "outputs": [
        {
          "internalType": "address",
          "name": "",
          "type": "address"
        }
      ],
      "payable": false,
      "stateMutability": "view",
      "type": "function"
    },
    {
      "constant": true,
      "inputs": [],
      "name": "confirmed",
      "outputs": [
        {
          "internalType": "bool",
          "name": "",
          "type": "bool"
        }
      ],
      "payable": false,
      "stateMutability": "view",
      "type": "function"
    },
    {
      "constant": true,
      "inputs": [],
      "name": "descr",
      "outputs": [
        {
          "internalType": "string",
          "name": "",
          "type": "string"
        }
      ],
      "payable": false,
      "stateMutability": "view",
      "type": "function"
    },
    {
      "constant": true,
      "inputs": [],
      "name": "price",
      "outputs": [
        {
          "internalType": "uint256",
          "name": "",
          "type": "uint256"
        }
      ],
      "payable": false,
      "stateMutability": "view",
      "type": "function"
    },
    {
      "constant": true,
      "inputs": [],
      "name": "seller",
      "outputs": [
        {
          "internalType": "address payable",
          "name": "",
          "type": "address"
        }
      ],
      "payable": false,
      "stateMutability": "view",
      "type": "function"
    },
    {
      "constant": false,
      "inputs": [
        {
          "internalType": "string",
          "name": "_descr",
          "type": "string"
        },
        {
          "internalType": "uint256",
          "name": "_price",
          "type": "uint256"
        },
        {
          "internalType": "address payable",
          "name": "_seller",
          "type": "address"
        },
        {
          "internalType": "address",
          "name": "_buyer",
          "type": "address"
        }
      ],
      "name": "recordContract",
      "outputs": [],
      "payable": false,
      "stateMutability": "nonpayable",
      "type": "function"
    },
    {
      "constant": false,
      "inputs": [],
      "name": "confirmReceipt",
      "outputs": [],
      "payable": true,
      "stateMutability": "payable",
      "type": "function"
    }
  ],
  "bytecode": "0x608060405234801561001057600080fd5b50610619806100206000396000f3fe6080604052600436106100705760003560e01c80637d94ad981161004e5780637d94ad981461019c578063a035b1fe146101a4578063a968991b146101cb578063bbba3644146101f457610070565b80630585ea691461007257806308551a53146101495780637150d8ae14610187575b005b34801561007e57600080fd5b506100706004803603608081101561009557600080fd5b8101906020810181356401000000008111156100b057600080fd5b8201836020820111156100c257600080fd5b803590602001918460018302840111640100000000831117156100e457600080fd5b91908080601f01602080910402602001604051908101604052809392919081815260200183838082843760009201919091525092955050823593505073ffffffffffffffffffffffffffffffffffffffff60208301358116926040013516905061027e565b34801561015557600080fd5b5061015e6102ec565b6040805173ffffffffffffffffffffffffffffffffffffffff9092168252519081900360200190f35b34801561019357600080fd5b5061015e610308565b610070610324565b3480156101b057600080fd5b506101b9610491565b60408051918252519081900360200190f35b3480156101d757600080fd5b506101e0610497565b604080519115158252519081900360200190f35b34801561020057600080fd5b506102096104a0565b6040805160208082528351818301528351919283929083019185019080838360005b8381101561024357818101518382015260200161022b565b50505050905090810190601f1680156102705780820380516001836020036101000a031916815260200191505b509250505060405180910390f35b8351610291906002906020870190610549565b506003929092556000805473ffffffffffffffffffffffffffffffffffffffff9283167fffffffffffffffffffffffff0000000000000000000000000000000000000000918216179091556001805492909316911617905550565b60005473ffffffffffffffffffffffffffffffffffffffff1681565b60015473ffffffffffffffffffffffffffffffffffffffff1681565b60015473ffffffffffffffffffffffffffffffffffffffff1633146103aa57604080517f08c379a000000000000000000000000000000000000000000000000000000000815260206004820152601660248201527f6f6e6c792062757965722063616e20636f6e6669726d00000000000000000000604482015290519081900360640190fd5b60035430311461041b57604080517f08c379a000000000000000000000000000000000000000000000000000000000815260206004820152601d60248201527f7075726368617365207072696365206d7573742062652066756e646564000000604482015290519081900360640190fd5b6000805460405173ffffffffffffffffffffffffffffffffffffffff90911691303180156108fc02929091818181858888f19350505050158015610463573d6000803e3d6000fd5b50600480547fffffffffffffffffffffffffffffffffffffffffffffffffffffffffffffff00166001179055565b60035481565b60045460ff1681565b600280546040805160206001841615610100027fffffffffffffffffffffffffffffffffffffffffffffffffffffffffffffffff01909316849004601f810184900484028201840190925281815292918301828280156105415780601f1061051657610100808354040283529160200191610541565b820191906000526020600020905b81548152906001019060200180831161052457829003601f168201915b505050505081565b828054600181600116156101000203166002900490600052602060002090601f016020900481019282601f1061058a57805160ff19168380011785556105b7565b828001600101855582156105b7579182015b828111156105b757825182559160200191906001019061059c565b506105c39291506105c7565b5090565b6105e191905b808211156105c357600081556001016105cd565b9056fea265627a7a723158205bf62d0ec9a4297c65045c80a36d2d49a646dfbd5c82ac892e755d386f46992a64736f6c634300050c0032",
  "source": "pragma solidity ^0.5.0;\n\ncontract BillOfSale {\n    address payable public seller;\n    address public buyer;\n    string public descr;\n    uint256 public price;\n    bool public confirmed;\n    //from OpenLaw Template\n    function recordContract(\n        string memory _descr,\n        uint256 _price,\n        address payable _seller,\n        address _buyer\n    ) public {\n        descr = _descr;\n        price = _price;\n        seller = _seller;\n        buyer = _buyer;\n    }\n    function() external payable {}\n    function confirmReceipt() public payable {\n        require(msg.sender == buyer, \"only buyer can confirm\");\n        require(\n            address(this).balance == price,\n            \"purchase price must be funded\"\n        );\n        address(seller).transfer(address(this).balance);\n        confirmed = true;\n    }\n}\n",
  "sourcePath": "/home/hnc/Desktop/gitcoin/openlaw-api-tutorial/contracts/BillOfSale.sol",
  "compiler": {
    "name": "solc",
    "version": "0.5.12+commit.7709ece9.Emscripten.clang"
  },
  "schemaVersion": "3.0.20",
  "updatedAt": "2020-03-22T13:52:30.697Z",
  "networkType": "ethereum",
  "devdoc": {
    "methods": {}
  },
  "userdoc": {
    "methods": {}
  }
}